:1000000019C033C032C031C030C02FC02EC02DC087
:1000100092C02BC02AC029C028C027C026C025C036
:1000200024C072C122C021C020C01FC01EC01DC07C
:100030001CC01BC011241FBECFEFCDBFDFE3DEBF4E
:100040001FE3A0E0BFE3ECEFF9E002C005900D92E2
:10005000A031B107D9F72FE3A0E1BFE301C01D92A2
:10006000AC31B207E1F780D1C7C4CACFCF93C62F56
:10007000813D27E0920710F080ED97E082339105F3
:1000800010F482E390E09C0150E040E060E070E01A
:1000900081E090E07DD4F89420930E3F30930F3FA1
:1000A000CC2321F01092113F1092123F7894CF91FF
:1000B00008958091021081FDFCCFF8948DE984BFF2
:1000C00083E0809300107894089510920D3F90E89B
:1000D000909306042FE332E44FE02150304040403B
:1000E000E1F700C0000090E020E8209305045FEBFA
:1000F00037E249E0515030404040E1F700C0000095
:10010000209306045FEB37E249E051503040404015
:10011000E1F700C000009F5F891738F75FE382E4D2
:100120009FE0515080409040E1F700C0000081E026
:1001300080930D3F08951F920F920FB60F921124D6
:100140002F933F934F935F936F937F938F939F93DF
:10015000AF93BF9380910B3F90910C3F8093380AEF
:100160009093390A8091103F8F5F8431A0F480937F
:10017000103F81E080930B0ABF91AF919F918F91C7
:100180007F916F915F914F913F912F910F900FBE93
:100190000F901F9018951092103F8091193F9091E9
:1001A0001A3F01968093193F90931A3F20910E3F7A
:1001B00030910F3F8091113F9091123F820F931F1A
:1001C0008093113F9093123F8091173F4091113FD0
:1001D0005091123F252F30E0752F833009F479C0FC
:1001E00008F5813009F456C0823009F456C02F77E3
:1001F00030E060E870E0621B730B629FC001639F98
:10020000900D729F900D112435E0969587953A9543
:10021000E1F787FF02C08FE790E070E857FF6EC0FC
:10022000781B3BC0770F770B8430B9F18530F9F636
:1002300080910E3F90910F3F4817590708F04EC02C
:100240008091083F8823B9F080910A3F8093093F4D
:100250004091063F5091073FCA019695879540FD12
:100260003AC08093063F9093073F8091063F80936A
:100270000A3F1092083F80911B3F70910A3FA72FC1
:10028000B0E0823079F54091093FA41BB109AED3AB
:10029000740F03C057FD7095770F28EE33E0729FFF
:1002A000C001739F900D1124892F992780930B3FD4
:1002B00090930C3F80910D3F882309F45ACF809191
:1002C000113F9091123F97FF1BC080E88093060476
:1002D00050CF7095E2CF44EB9427C3CF81E0809359
:1002E000083FC9CF80911B3F8111D7CF80910E3F2E
:1002F00090910F3F833A910530F2CFCF780FCDCF59
:1003000080E88093050435CF1F920F920FB60F92AD
:1003100011248F939F9380910606813021F08230C3
:10032000B9F081E009C08091100690911106809388
:10033000153F9093163F82E08093060681E08093FC
:100340000B069F918F910F900FBE0F901F901895E5
:1003500080911006909111068093133F9093143F63
:1003600081E08093183FE8CFCF93DF93CDB7DEB71E
:100370002597CDBFDEBF88ED84BF109261008091CC
:1003800062008160809362008091021081FDFCCF49
:1003900020900014C0900114D09002148091031496
:1003A00080931B3FE0900414C601C2978F39974099
:1003B00020F0F4EFCF2EDD24D39441E0421508F471
:1003C000212C80911B3F833010F010921B3F81E065
:1003D0008E1508F4E12C789488E8809301048091CC
:1003E000160488608093160484E08093120480933E
:1003F00011048091010A83618093010A87EE93E0E2
:100400008093260A9093270A84EF91E08093280A2C
:100410009093290A80910A0A816080930A0A81E0F8
:100420008093000A94E590930206809306068093D9
:100430000A06909100069360909300068093080648
:100440001092193F10921A3F8091183F811107C0F6
:100450008091193F90911A3F84369105A8F39FE748
:1004600028E341E0915020404040E1F700C0000007
:10047000F8948090153F9090163F8091133F909193
:10048000143F78948F3F910509F008F46BC28115F1
:10049000934008F474C241E082E0382E85E0E4160F
:1004A00021F084E002C0312C82E08093173F41E0CC
:1004B000241237C060E0C601D9DDCC82DD82809194
:1004C000173F853019F480911B3FFFDD1A821B8294
:1004D000612CF12C712C512C10E000E0F894A090CC
:1004E000153FB090163F8091133F9091143F789440
:1004F000412C8F3F910541F038F0E2E04E2E8115FE
:10050000934010F4442443943414D1F180910804AE
:10051000EE24E39486FF17C0E12C41101DC080E05B
:1005200020C09401AEE9B7E055D22FEF33E040E0B0
:1005300050E02ED280ED97E0821B930B8C839D833D
:1005400060E094DDBCCF82E0442059F041E085E0DA
:10055000441207C083E005C081E0481609F43CC09E
:1005600084E08093173F80911B3F20920014C0923B
:100570000114D092021480930314E092041499DDC4
:1005800091E029122BC0511065C0C4018A199B0942
:1005900097FF03C0919581959109C29764F57724DF
:1005A000739419828091080486FF5AC0002309F4CD
:1005B000A1C0113009F0DCC0F110DAC06110DBC05D
:1005C0008091193F90911A3FFF24F394843F91400A
:1005D00008F0F12C450189C081E0C3CF5110C9C199
:1005E000C4018A199B0997FF03C0919581959109D0
:1005F0000A970CF4BEC19501AEE9B7E0EBD12FEF3D
:1006000033E040E050E0C4D180ED97E0821B930BD3
:100610008C839D8360E02ADD91E045012912A9C108
:100620001092193F10921A3F8091193F90911A3FF2
:10063000893E934088F080911B3F10920014C09235
:100640000114D092021480930314E092041431DD5B
:10065000712CA7CF752CA5CF712C41E04983A2CF77
:1006600083E991E10197F1F700C00000809108044F
:1006700086FD9CCF002309F4A1C08091193F909181
:100680001A3F843F914090F1662009F415C1809192
:100690001B3F8F5F80931B3F80911B3F833010F087
:1006A00010921B3F80911B3F70920014C092011466
:1006B000D092021480930314E0920414FADC809127
:1006C0001B3F03DD8091080486FD0AC083E991E1A8
:1006D0000197F1F700C000008091080486FFF2CF77
:1006E0004501612CF12C512C10E000E0272C342C1A
:1006F0007980F4CE123050F12091193F30911A3F99
:10070000C601880F991F8C0D9D1D8217930738F025
:100710008091193F90911A3F853C994038F3809120
:100720001B3F41E040930014C0920114D092021488
:1007300080930314E0920414BCDC1092193F1092D1
:100740001A3F512C10E077247394D0CF113071F4FC
:100750008091193F90911A3F853C994038F2109250
:10076000193F10921A3F612CF12C512C10E0BECF92
:10077000662009F42FCF8A819B818C839D83C29749
:1007800020F482E390E08C839D838C819D81813D68
:10079000974020F080ED97E08C839D8361E08C8111
:1007A0009D8164DC1092193F10921A3FCC80DD804D
:1007B000702E4501612CF12C12E097CF111111C060
:1007C0001092193F10921A3FF8941092113F109214
:1007D000123F7894612CF12C5524539411E001E0E0
:1007E00085CF113029F5FF2009F47FCF8091193F83
:1007F00090911A3F1F2DC29708F478CF8091193F2E
:1008000090911A3F8A839B838091200A9091210ABC
:10081000843F914028F08A819B8101968A839B8343
:100820001092193F10921A3F6F2C1F2D0F2D5ECF83
:100830008091193F90911A3FC29708F457CF809149
:10084000200A9091210A843F914048F08091193FFD
:1008500090911A3F01968093193F90931A3F80918F
:10086000193F90911A3FC80ED91ED694C7948C8117
:100870009D818C0D9D1D969587958C839D83C29738
:1008800020F482E390E08C839D838C819D81813D67
:10089000974020F080ED97E08C839D8361E08C8110
:1008A0009D81E4DB1F5F1092193F10921A3FCC80AC
:1008B000DD807724739493CF8C809D809694879469
:1008C00092E38916910418F432E3832E912C102FB1
:1008D0002C803D80809108048074112349F181119E
:1008E00032C08214930418F421E0221A310860E027
:1008F000C101BCDBF894A090153FB090163F8091E9
:10090000133F9091143F789490E080E08A199B09FE
:10091000880F991F8250984F30E020E02817390740
:10092000C8F646E04A95F1F700C02F5F3F4FF6CF7B
:10093000882359F08C819D812816390640F49FEF59
:10094000291A390AD4CF10E0D2CF102FD0CF10926D
:10095000193F10921A3F612CF12C45012C823D82E7
:10096000512CC3CE81E0E81609F49DCD3E2C8E2D8E
:100970009CCD91E0791609F457CE798213CE21E00F
:100980003324339483E0E21609F48FCD81E08DCDDA
:10099000A1E21A2EAA1BBB1BFD010DC0AA1FBB1F83
:1009A000EE1FFF1FA217B307E407F50720F0A21BF5
:1009B000B30BE40BF50B661F771F881F991F1A9462
:1009C00069F760957095809590959B01AC01BD018C
:1009D000CF010895A29FB001B39FC001A39F01D092
:1009E000B29F700D811D1124911D0895F3DFB7FF93
:0C09F0000895821B930B0895F894FFCF2C
:1009FC007265765F3100E1AC018080F40101830007
:00000001FF
