:1000000019C033C032C031C030C02FC02EC02DC087
:1000100092C02BC02AC029C028C027C026C025C036
:1000200024C082C122C021C020C01FC01EC01DC06C
:100030001CC01BC011241FBECFEFCDBFDFE3DEBF4E
:100040001FE3A0E0BFE3ECE0FBE002C005900D92EF
:10005000A031B107D9F72FE3A0E1BFE301C01D92A2
:10006000AC31B207E1F790D14FC5CACFCF93C62FBD
:10007000813D27E0920710F080ED97E082339105F3
:1000800010F482E390E09C0150E040E060E070E01A
:1000900081E090E005D5F89420930E3F30930F3F18
:1000A000CC2321F01092113F1092123F7894CF91FF
:1000B00008958091021081FDFCCFF8948DE984BFF2
:1000C00083E0809300107894089510920D3F90E89B
:1000D000909306042FE332E44FE02150304040403B
:1000E000E1F700C0000090E020E8209305045FEBFA
:1000F00037E249E0515030404040E1F700C0000095
:10010000209306045FEB37E249E051503040404015
:10011000E1F700C000009F5F891738F75FE789EBC0
:100120009AE2515080409040E1F700C0000081E029
:1001300080930D3F08951F920F920FB60F921124D6
:100140002F933F934F935F936F937F938F939F93DF
:10015000AF93BF93EF93FF9380910B3F90910C3F30
:100160008093380A9093390A8091103F8F5F8431D1
:10017000B0F48093103F81E080930B0AFF91EF91E0
:10018000BF91AF919F918F917F916F915F914F91AF
:100190003F912F910F900FBE0F901F9018951092C6
:1001A000103F8091193F90911A3F01968093193F1B
:1001B00090931A3F20910E3F30910F3F8091113F55
:1001C0009091123F820F931F8093113F9093123FA3
:1001D0008091173F4091113F5091123F252F30E001
:1001E000A52F833009F481C010F5813009F456C081
:1001F000823009F45DC02F7730E080E890E0821B08
:10020000930B829FD001839FB00D929FB00D11245C
:1002100085E0B695A7958A95E1F78A2F57FF7BC0B1
:1002200020E82A1BA22F87FF43C0A0E041C0AA0FED
:10023000AA0B8430E9F18530F1F680910E3F909160
:100240000F3F4817590708F055C08091083F882391
:10025000B9F080910A3F8093093F4091063F509149
:10026000073FCA019695879540FD41C08093063FA0
:100270009093073F8091063F80930A3F1092083F7A
:1002800080911B3FA0910A3F8230C1F54091093F08
:10029000A41BBB0B33D4A42FA70F0AC057FDA095F6
:1002A0002FEFA29FC00111246FE770E0E5D3A62FC6
:1002B0002A2F30E0A7EEB3E015D42FEF30E040E076
:1002C00050E0EED320930B3F30930C3F80910D3FD5
:1002D000882309F450CF8091113F9091123F97FFEE
:1002E0001FC080E88093060446CFA095E1CF44EB81
:1002F0009427BCCF81E08093083FC2CF80911B3F01
:100300008111D6CF80910E3F90910F3F833A910596
:1003100008F4BCCFCDCFA05887FFCACFAFEFC8CF6E
:1003200080E88093050427CF1F920F920FB60F929B
:1003300011248F939F9380910606813021F08230A3
:10034000B9F081E009C08091100690911106809368
:10035000153F9093163F82E08093060681E08093DC
:100360000B069F918F910F900FBE0F901F901895C5
:1003700080911006909111068093133F9093143F43
:1003800081E08093183FE8CFCF93DF93CDB7DEB7FE
:100390002797CDBFDEBF88ED84BF109261008091AA
:1003A00062008160809362008091021081FDFCCF29
:1003B0009090001420900114309002148091031446
:1003C00080931B3F70900414C101C2978F399740EE
:1003D00020F0E4EF2E2E3324339431E0391508F465
:1003E000912C80911B3F833010F010921B3F41E015
:1003F000471508F4712C789488E880930104809163
:10040000160488608093160484E08093120480931D
:1004100011048091010A83618093010A87EE93E0C1
:100420008093260A9093270A84EF91E08093280A0C
:100430009093290A80910A0A816080930A0A81E0D8
:100440008093000A94E590930206809306068093B9
:100450000A06909100069360909300068093080628
:100460001092193F10921A3F8091183F811109C0D4
:10047000F8948091193F90911A3F789484369105B1
:1004800098F38FE798E3E1E081509040E040E1F796
:1004900000C00000F894A090153FB090163F8091E6
:1004A000133F9091143F78948F3F910509F008F421
:1004B000C1C28115934008F4D6C231E07312ABC0BB
:1004C00042E04A8385E002C01A8282E08093173FAF
:1004D00041E09412A4C060E0C101C8DD2E823F82D9
:1004E0008091173F853019F480911B3FEEDDC12CC0
:1004F0001C821D82D12C00E0612CE12C10E0F12C3B
:10050000F8944090153F5090163F8091133F909182
:10051000143F789420910804812C26FD0DC0E3E956
:10052000F1E13197F1F700C000008090080486FAED
:10053000882480F8F1E08F268F3F910509F008F4B8
:1005400086C08115934008F484C032E039838A81E3
:1005500099818917E1F0882009F47EC082E099230F
:1005600021F085E0913009F483E08093173F80917A
:100570001B3F909200142092011430920214809339
:1005800003148092041495DD81105BC2712CF1E09C
:100590009F1273C0E110B1C0C5018419950997FF7E
:1005A00003C0919581959109C2970CF073C06624A0
:1005B0006394E12C1B8281100EC1F110C6C0123071
:1005C00008F4ADC0F8942091193F30911A3F789407
:1005D000C101880F991F820D931D8217930708F0A0
:1005E00092C080911B3F21E02093001420920114BF
:1005F0003092021480930314709204145ADD109206
:10060000193F10921A3FC12CD12C00E0E12C10E0D0
:100610006624639417C032E03A8384E057CF950193
:10062000AEE9B7E05FD22FEF33E040E050E038D2E0
:1006300080ED97E0821B930B8E839F8360E016DD35
:100640004FCFFC2C962C99819A836B8059CF1982BD
:100650007ECF41E049837BCFE98180E0EE2309F43E
:1006600084CF84E0E13009F080CF81E07ECFCC24DC
:10067000C394D12C00E010E08FCFE110EEC1C50192
:100680008419950997FF03C09195819591090A975F
:100690000CF4E2C19201AEE9B7E024D22FEF33E0CF
:1006A00040E050E0FDD180ED97E0821B930B8E83FC
:1006B0009F8360E0DBDC91E0E92C52019912CDC10F
:1006C0001092193F10921A3FE12CF8948091193F33
:1006D00090911A3F7894893E934088F080911B3F17
:1006E000109200142092011430920214809303148B
:1006F00070920414DEDC612C5DCF6E2C5BCF612C1C
:10070000F1E0FB8358CFF8948091193F90911A3F04
:100710007894853C994008F064CFC12C93CFC12CCC
:10072000113089F4F8948091193F90911A3F789490
:10073000853C994090F31092193F10921A3FC12CBA
:10074000D12C00E0E12C10E07DCFCC2049F01092BC
:10075000193F10921A3F5201C12CD12C00E0F7C072
:10076000113091F4011110C0D11010C0F894809193
:10077000193F90911A3F789401E0843F914008F02E
:1007800000E0C12C5201E5C0DD20D9F32C813D8170
:100790002E833F832233310520F482E390E08E8361
:1007A0009F83EE81FF81E13DF74020F080ED97E0EF
:1007B0008E839F8361E08E819F8158DC1092193F68
:1007C00010921A3F2E803F806F2CD12C00E05201F6
:1007D000F12C12E037CFF11080C0111112C010922D
:1007E000193F10921A3FF8941092113F1092123F45
:1007F0007894D12C00E0EE24E39411E0FF24F394EC
:1008000021CF113051F5002309F4A3C0F894809151
:10081000193F90911A3F7894102FC29708F412CF85
:10082000F894E091193FF0911A3FEC83FD8378949E
:100830008091200A9091210A843F914030F02C81D0
:100840003D812F5F3F4F2C833D831092193F1092C3
:100850001A3FD02E102FF02EF5CEF8948091193F2C
:1008600090911A3F7894C29708F4ECCEF894809156
:10087000193F90911A3F78942091200A3091210AD3
:10088000243F314008F00196820D931D969587957F
:10089000EE81FF81E80FF91FF695E795EE83FF8360
:1008A000F29720F422E330E02E833F838E819F81F4
:1008B000813D974020F020ED37E02E833F8361E0BB
:1008C0008E819F81D3DB1F5F1092193F10921A3FD8
:1008D0002E803F806624639491CFC110B2CEF894ED
:1008E0008091193F90911A3F7894843F914008F489
:1008F000A9CEDD2081F180911B3F8F5F80931B3F4C
:1009000080911B3F833010F010921B3F80911B3F62
:100910006092001420920114309202148093031408
:1009200070920414C6DB80911B3FCFDB80910804DA
:1009300086FD0AC083E991E10197F1F700C000004C
:100940008091080486FFF2CFD12C00E05201E12C07
:1009500010E0F12C77CEEE81FF81EC3221E0F2073E
:10096000C8F5CF01B0E0A0E0880F991FAA1FBB1FF8
:100970006C011F2D8E809F8080910804807411234C
:10098000A9F1811147C08C149D0448F53FEF831AEB
:10099000930A60E0C4016ADBF8944090153F5090E0
:1009A000163F8091133F9091143F789490E080E03F
:1009B00084199509880F991F8250984F30E020E0E4
:1009C00028173907C8F646E04A95F1F700C02F5FAF
:1009D0003F4FF6CFCE80DF80D694C794CACFC814DD
:1009E000D904B8F641E0841A9108D3CF8823A1F046
:1009F0008E819F818816990620F49FEF891A990AA3
:100A0000C8CFEE81FF81E815F90540F4F1E08F1AB7
:100A10009108BFCF10E0BDCF1F2DBBCF1092193F63
:100A200010921A3FC12CD12C00E052018E829F827D
:100A3000E12C8FCF81E0781609F446CD7A82872D9C
:100A400045CD91E0782C991609F411CED92C092DB9
:100A5000192DCC24C39413CEE12CE1E06E1609F4D9
:100A600034CE6B82A8CDF1E021E02A8383E07F16AB
:100A700009F42CCD81E02ACDAA1BBB1B51E107C094
:100A8000AA1FBB1FA617B70710F0A61BB70B881F1E
:100A9000991F5A95A9F780959095BC01CD010895AD
:100AA000A1E21A2EAA1BBB1BFD010DC0AA1FBB1F72
:100AB000EE1FFF1FA217B307E407F50720F0A21BE4
:100AC000B30BE40BF50B661F771F881F991F1A9451
:100AD00069F760957095809590959B01AC01BD017B
:100AE000CF010895A29FB001B39FC001A39F01D081
:100AF000B29F700D811D1124911D0895F3DFB7FF82
:0C0B00000895821B930B0895F894FFCF1A
:100B0C007265765F3100E1AC018080F401018300F5
:00000001FF
