:1000000019C033C032C031C030C02FC02EC02DC087
:1000100092C02BC02AC029C028C027C026C025C036
:1000200024C072C122C021C020C01FC01EC01DC07C
:100030001CC01BC011241FBECFEFCDBFDFE3DEBF4E
:100040001FE3A0E0BFE3EAE1FAE002C005900D92F1
:10005000A031B107D9F72FE3A0E1BFE301C01D92A2
:10006000AC31B207E1F780D1D6C4CACFCF93C62F47
:10007000813D27E0920710F080ED97E082339105F3
:1000800010F482E390E09C0150E040E060E070E01A
:1000900081E090E08CD4F89420930E3F30930F3F92
:1000A000CC2321F01092113F1092123F7894CF91FF
:1000B00008958091021081FDFCCFF8948DE984BFF2
:1000C00083E0809300107894089510920D3F90E89B
:1000D000909306042FE332E44FE02150304040403B
:1000E000E1F700C0000090E020E8209305045FEBFA
:1000F00037E249E0515030404040E1F700C0000095
:10010000209306045FEB37E249E051503040404015
:10011000E1F700C000009F5F891738F75FE382E4D2
:100120009FE0515080409040E1F700C0000081E026
:1001300080930D3F08951F920F920FB60F921124D6
:100140002F933F934F935F936F937F938F939F93DF
:10015000AF93BF9380910B3F90910C3F8093380AEF
:100160009093390A8091103F8F5F8431A0F480937F
:10017000103F81E080930B0ABF91AF919F918F91C7
:100180007F916F915F914F913F912F910F900FBE93
:100190000F901F9018951092103F8091193F9091E9
:1001A0001A3F01968093193F90931A3F20910E3F7A
:1001B00030910F3F8091113F9091123F820F931F1A
:1001C0008093113F9093123F8091173F4091113FD0
:1001D0005091123F252F30E0752F833009F479C0FC
:1001E00008F5813009F456C0823009F456C02F77E3
:1001F00030E060E870E0621B730B629FC001639F98
:10020000900D729F900D112435E0969587953A9543
:10021000E1F787FF02C08FE790E070E857FF6EC0FC
:10022000781B3BC0770F770B8430B9F18530F9F636
:1002300080910E3F90910F3F4817590708F04EC02C
:100240008091083F8823B9F080910A3F8093093F4D
:100250004091063F5091073FCA019695879540FD12
:100260003AC08093063F9093073F8091063F80936A
:100270000A3F1092083F80911B3F70910A3FA72FC1
:10028000B0E0823079F54091093FA41BB109BDD39C
:10029000740F03C057FD7095770F28EE33E0729FFF
:1002A000C001739F900D1124892F992780930B3FD4
:1002B00090930C3F80910D3F882309F45ACF809191
:1002C000113F9091123F97FF1BC080E88093060476
:1002D00050CF7095E2CF44EB9427C3CF81E0809359
:1002E000083FC9CF80911B3F8111D7CF80910E3F2E
:1002F00090910F3F833A910530F2CFCF780FCDCF59
:1003000080E88093050435CF1F920F920FB60F92AD
:1003100011248F939F9380910606813021F08230C3
:10032000B9F081E009C08091100690911106809388
:10033000153F9093163F82E08093060681E08093FC
:100340000B069F918F910F900FBE0F901F901895E5
:1003500080911006909111068093133F9093143F63
:1003600081E08093183FE8CFCF93DF93CDB7DEB71E
:100370002597CDBFDEBF88ED84BF109261008091CC
:1003800062008160809362008091021081FDFCCF49
:1003900020900014C0900114D09002148091031496
:1003A00080931B3FE0900414C601C2978F39974099
:1003B00020F0F4EFCF2EDD24D39431E0321508F491
:1003C000212C80911B3F833010F010921B3F41E0A5
:1003D0004E1508F4E12C789488E88093010480910C
:1003E000160488608093160484E08093120480933E
:1003F00011048091010A83618093010A87EE93E0E2
:100400008093260A9093270A84EF91E08093280A2C
:100410009093290A80910A0A816080930A0A81E0F8
:100420008093000A94E590930206809306068093D9
:100430000A06909100069360909300068093080648
:100440001092193F10921A3F8091183F811109C0F4
:10045000F8948091193F90911A3F789484369105D1
:1004600098F38FE798E321E0815090402040E1F736
:1004700000C00000F8948090153F9090163F809146
:10048000133F9091143F78948F3F910509F008F441
:1004900078C28115934008F481C231E082E0382EA1
:1004A00085E0E31621F084E002C0312C82E08093E5
:1004B000173F41E0241237C060E0C601D7DDCC828F
:1004C000DD828091173F853019F480911B3FFDDD5F
:1004D0001A821B82612CF12C712C512C10E000E04F
:1004E000F894A090153FB090163F8091133F9091E3
:1004F000143F7894412C8F3F910541F038F0E2E0B1
:100500004E2E8115934010F4442443943414A1F1E9
:1005100080910804EE24E39486FF17C0E12C41107B
:1005200059C080E01AC09401AEE9B7E062D22FEF63
:1005300033E040E050E03BD280ED97E0821B930B2C
:100540008C839D8360E092DDBCCF82E0442029F063
:1005500031E085E0431201C083E08093173F809132
:100560001B3F20920014C0920114D0920214809379
:100570000314E09204149DDD81E0281231C0511073
:100580006DC0C4018A199B0997FF03C0919581959D
:100590009109C29794F57724739419828091080485
:1005A00086FF62C0002309F4ABC0113009F0EEC031
:1005B000F110ECC06110EDC0F8948091193F90915A
:1005C0001A3F7894FF24F394843F914008F0F12C73
:1005D000450191C041E084E04412BFCF81E0BDCF2E
:1005E0005110D6C1C4018A199B0997FF03C0919588
:1005F000819591090A970CF4CBC19501AEE9B7E05A
:10060000F8D12FEF33E040E050E0D1D180ED97E01A
:10061000821B930B8C839D8360E028DD91E0450174
:100620002912B6C11092193F10921A3FF894809186
:10063000193F90911A3F7894893E934088F08091B9
:100640001B3F10920014C0920114D09202148093A8
:100650000314E09204142DDD712C9FCF752C9DCFD7
:10066000712C31E039839ACF83E991E10197F1F759
:1006700000C000008091080486FD94CF002309F497
:10068000ABC0F8948091193F90911A3F7894843FC1
:10069000914090F1662009F41EC180911B3F8F5F4D
:1006A00080931B3F80911B3F833010F010921B3FC3
:1006B00080911B3F70920014C0920114D0920214DA
:1006C00080930314E0920414F4DC80911B3FFDDC62
:1006D0008091080486FD0AC083E991E10197F1F752
:1006E00000C000008091080486FFF2CF4501612C14
:1006F000F12C512C10E000E0272C342C7980F0CE26
:10070000123078F1F8942091193F30911A3F789483
:10071000C601880F991F8C0D9D1D82179307B8F491
:1007200080911B3F91E090930014C0920114D092ED
:10073000021480930314E0920414BBDC1092193F5E
:1007400010921A3F512C10E077247394D5CFF8946F
:100750008091193F90911A3F7894853C994000F719
:10076000CBCF113089F4F8948091193F90911A3FC2
:100770007894853C994008F4BFCF1092193F1092AD
:100780001A3F612CF12C512C10E0B6CF662009F4F1
:100790001FCF8A819B818C839D83C29720F422E3A3
:1007A00030E02C833D838C819D81813D974020F0FA
:1007B00080ED97E08C839D8361E08C819D8156DC88
:1007C0001092193F10921A3FCC80DD80702E4501A7
:1007D000612CF12C12E08FCF111111C01092193F32
:1007E00010921A3FF8941092113F1092123F789491
:1007F000612CF12C5524539411E001E07DCF113090
:1008000049F5FF2009F477CFF8948091193F909132
:100810001A3F78941F2DC29708F46ECFF894209158
:10082000193F30911A3F2A833B8378948091200AA4
:100830009091210A843F914028F08A819B81019602
:100840008A839B831092193F10921A3F6F2C1F2DA1
:100850000F2D52CFF8948091193F90911A3F7894C0
:10086000C29708F449CFF8948091193F90911A3FAC
:1008700078942091200A3091210A243F314008F0D9
:1008800001968C0D9D1D969587952C813D81280F95
:10089000391F369527952C833D832233310520F46B
:1008A00082E390E08C839D832C813D81213D374004
:1008B00020F080ED97E08C839D8361E08C819D81A9
:1008C000D5DB1F5F1092193F10921A3FCC80DD805C
:1008D0007724739492CF8C809D809694879492E332
:1008E0008916910418F432E3832E912C102F2C805A
:1008F0003D80809108048074112349F1811132C038
:100900008214930418F421E0221A310860E0C10136
:10091000ADDBF894A090153FB090163F8091133F47
:100920009091143F789490E080E08A199B09880F99
:10093000991F8250984F30E020E028173907C8F6F9
:1009400046E04A95F1F700C02F5F3F4FF6CF88236E
:1009500059F08C819D812816390640F49FEF291AA1
:10096000390AD4CF10E0D2CF102FD0CF1092193F38
:1009700010921A3F612CF12C45012C823D82512CA2
:10098000BACE81E0E81609F490CD3E2C8E2D8FCDA5
:1009900091E0791609F44ACE798200CE21E0332421
:1009A000339483E0E21609F482CD81E080CDA1E2A8
:1009B0001A2EAA1BBB1BFD010DC0AA1FBB1FEE1FD9
:1009C000FF1FA217B307E407F50720F0A21BB30B24
:1009D000E40BF50B661F771F881F991F1A9469F7A0
:1009E00060957095809590959B01AC01BD01CF01FC
:1009F0000895A29FB001B39FC001A39F01D0B29FF1
:100A0000700D811D1124911D0895F3DFB7FF089526
:0A0A1000821B930B0895F894FFCFAA
:100A1A007265765F3100E1AC018080F401018300E8
:00000001FF
