:1000000019C033C032C031C030C02FC02EC02DC087
:1000100092C02BC02AC029C028C027C026C025C036
:1000200024C072C122C021C020C01FC01EC01DC07C
:100030001CC01BC011241FBECFEFCDBFDFE3DEBF4E
:100040001FE3A0E0BFE3E8E8FAE002C005900D92EC
:10005000A031B107D9F72FE3A0E1BFE301C01D92A2
:10006000AC31B207E1F780D10DC5CACFCF93C62F0F
:10007000813D27E0920710F080ED97E082339105F3
:1000800010F482E390E09C0150E040E060E070E01A
:1000900081E090E0C3D4F89420930E3F30930F3F5B
:1000A000CC2321F01092113F1092123F7894CF91FF
:1000B00008958091021081FDFCCFF8948DE984BFF2
:1000C00083E0809300107894089510920D3F90E89B
:1000D000909306042FE332E44FE02150304040403B
:1000E000E1F700C0000090E020E8209305045FEBFA
:1000F00037E249E0515030404040E1F700C0000095
:10010000209306045FEB37E249E051503040404015
:10011000E1F700C000009F5F891738F75FE789EBC0
:100120009AE2515080409040E1F700C0000081E029
:1001300080930D3F08951F920F920FB60F921124D6
:100140002F933F934F935F936F937F938F939F93DF
:10015000AF93BF9380910B3F90910C3F8093380AEF
:100160009093390A8091103F8F5F8431A0F480937F
:10017000103F81E080930B0ABF91AF919F918F91C7
:100180007F916F915F914F913F912F910F900FBE93
:100190000F901F9018951092103F8091193F9091E9
:1001A0001A3F01968093193F90931A3F20910E3F7A
:1001B00030910F3F8091113F9091123F820F931F1A
:1001C0008093113F9093123F8091173F4091113FD0
:1001D0005091123F252F30E0752F833009F479C0FC
:1001E00008F5813009F456C0823009F456C02F77E3
:1001F00030E060E870E0621B730B629FC001639F98
:10020000900D729F900D112435E0969587953A9543
:10021000E1F787FF02C08FE790E070E857FF6EC0FC
:10022000781B3BC0770F770B8430B9F18530F9F636
:1002300080910E3F90910F3F4817590708F04EC02C
:100240008091083F8823B9F080910A3F8093093F4D
:100250004091063F5091073FCA019695879540FD12
:100260003AC08093063F9093073F8091063F80936A
:100270000A3F1092083F80911B3F70910A3FA72FC1
:10028000B0E0823079F54091093FA41BB109F4D365
:10029000740F03C057FD7095770F28EE33E0729FFF
:1002A000C001739F900D1124892F992780930B3FD4
:1002B00090930C3F80910D3F882309F45ACF809191
:1002C000113F9091123F97FF1BC080E88093060476
:1002D00050CF7095E2CF44EB9427C3CF81E0809359
:1002E000083FC9CF80911B3F8111D7CF80910E3F2E
:1002F00090910F3F833A910530F2CFCF780FCDCF59
:1003000080E88093050435CF1F920F920FB60F92AD
:1003100011248F939F9380910606813021F08230C3
:10032000B9F081E009C08091100690911106809388
:10033000153F9093163F82E08093060681E08093FC
:100340000B069F918F910F900FBE0F901F901895E5
:1003500080911006909111068093133F9093143F63
:1003600081E08093183FE8CFCF93DF93CDB7DEB71E
:100370002697CDBFDEBF88ED84BF109261008091CB
:1003800062008160809362008091021081FDFCCF49
:100390009090001440900114509002148091031426
:1003A00080931B3F70900414C201C2978F3997400D
:1003B00020F0E4EF4E2E5524539431E0391508F423
:1003C000912C80911B3F833010F010921B3F41E035
:1003D000471508F4712C789488E880930104809183
:1003E000160488608093160484E08093120480933E
:1003F00011048091010A83618093010A87EE93E0E2
:100400008093260A9093270A84EF91E08093280A2C
:100410009093290A80910A0A816080930A0A81E0F8
:100420008093000A94E590930206809306068093D9
:100430000A06909100069360909300068093080648
:100440001092193F10921A3F8091183F811109C0F4
:10045000F8948091193F90911A3F789484369105D1
:1004600098F38FE798E321E0815090402040E1F736
:1004700000C00000F894A090153FB090163F809106
:10048000133F9091143F78948F3F910509F008F441
:10049000A2C28115934008F4B8C241E082E0882EE0
:1004A00085E0741621F084E002C0812C82E0809304
:1004B000173F41E094123AC060E0C201D7DD4D829F
:1004C0005E828091173F853019F480911B3FFDDDDE
:1004D000212C1B821C82312C00E0612CE12C10E0CD
:1004E000F12CF894C090153FD090163F8091133FA7
:1004F0009091143F78948F3F910579F170F18115B7
:10050000934068F132E039838981881609F44AC042
:100510008091080491E0282F2074822E86FF22C04B
:1005200090E03981311127C080E029C09501AEE902
:10053000B7E096D22FEF33E040E050E06FD280ED8D
:1005400097E0821B930B8D839E8360E08FDDB9CF94
:10055000F22C962C89806A80C4CF1982D5CF41E0D5
:100560004983D2CF498182E0442349F085E041307C
:1005700031F483E004C089818130D1F184E080933B
:10058000173F80911B3F90920014409201145092AB
:10059000021480930314909304148BDD882009F4D3
:1005A00021C2712C91E099122DC0E1106BC0C501E0
:1005B0008C199D0997FF03C0919581959109C29768
:1005C00074F566246394E12C1A828091080486FFF6
:1005D0005FC0FF2009F4A8C0222009F4EBC01092EC
:1005E000193F10921A3F5601212C312C00E098C07F
:1005F00081E0C5CF7724739422242394312C00E02A
:1006000010E0D5CFE110FBC1C5018C199D0997FF02
:1006100003C09195819591090A970CF4EFC1960159
:10062000AEE9B7E01DD22FEF33E040E050E0F6D165
:1006300080ED97E0821B930B8D839E8360E016DD37
:1006400091E0E92C56019912DAC11092193F1092EB
:100650001A3FE12CF8948091193F90911A3F7894B9
:10066000893E934088F080911B3F10920014409285
:10067000011450920214809303147092041419DD33
:10068000612CA2CF6E2CA0CF612C31E03A839DCF9C
:1006900083E991E10197F1F700C00000809108041F
:1006A00086FD97CFFF2009F4BFC0211051CFF894E9
:1006B0008091193F90911A3F7894843F914008F4BB
:1006C00048CF332009F430C180911B3F8F5F809366
:1006D0001B3F80911B3F833010F010921B3F809195
:1006E0001B3F6092001440920114509202148093B8
:1006F000031470920414DDDC80911B3FE6DC8091D2
:10070000080486FD0AC083E991E10197F1F700C072
:1007100000008091080486FFF2CF312C00E05601E2
:10072000E12C10E0F12C15CF123078F1F8942091E3
:10073000193F30911A3F7894C201880F991F840D98
:10074000951D82179307B8F480911B3F91E0909319
:10075000001440920114509202148093031470927A
:100760000414A7DC1092193F10921A3FE12C10E0FC
:1007700066246394EECEF8948091193F90911A3FCD
:100780007894853C994000F7E4CE113089F4F894D0
:100790008091193F90911A3F7894853C994008F4D4
:1007A000D8CE1092193F10921A3F312C00E0E12C64
:1007B00010E0CFCE113091F4011110C0311010C0F3
:1007C000F8948091193F90911A3F789401E0843F0A
:1007D000914008F000E0212C5601A4CF3320D9F33A
:1007E0008B819C818D839E83C29720F422E330E02D
:1007F0002D833E838D819E81813D974020F080ED49
:1008000097E08D839E8361E08D819E812FDC109225
:10081000193F10921A3F4D805E806F2C312C00E002
:100820005601F12C12E095CE111112C01092193F11
:1008300010921A3FF8941092113F1092123F789440
:10084000312C00E0EE24E39411E0FF24F39481CEF8
:10085000113049F5002309F465CFF8948091193FD0
:1008600090911A3F7894102FC29708F472CEF894A2
:100870002091193F30911A3F2B833C8378948091CB
:10088000200A9091210A843F914028F08B819C811D
:1008900001968B839C831092193F10921A3F302E41
:1008A000102FF02E56CEF8948091193F90911A3F58
:1008B0007894C29708F44DCEF8948091193F9091A6
:1008C0001A3F78942091200A3091210A243F314028
:1008D00008F00196840D951D969587952D813E8192
:1008E000280F391F369527952D833E8322333105F6
:1008F00020F482E390E08D839E832D813E81213D13
:10090000374020F080ED97E08D839E8361E08D81FC
:100910009E81ACDB1F5F1092193F10921A3F4D80F1
:100920005E806624639491CFAD80BE80B694A79418
:1009300092E3A916B10418F432E3A32EB12C1F2DB3
:100940008D809E80809108048074112349F181116B
:1009500032C0A814B90418F421E0821A910860E0AA
:10096000C40184DBF894C090153FD090163F80916D
:10097000133F9091143F789490E080E08C199D098A
:10098000880F991F8250984F30E020E028173907D0
:10099000C8F646E04A95F1F700C02F5F3F4FF6CF0B
:1009A000882359F08D819E818816990640F49FEF27
:1009B000891A990AD4CF10E0D2CF1F2DD0CF109230
:1009C000193F10921A3F212C312C00E056018D82E4
:1009D0009E82E12CA7CE81E0781609F466CD872CA3
:1009E000872D65CD91E0991609F404CE392C092D97
:1009F000192D772473942224239406CEE12C21E030
:100A0000621609F427CE6A82E0CD31E0882483940F
:100A100083E0731609F44BCD81E049CDA1E21A2E93
:100A2000AA1BBB1BFD010DC0AA1FBB1FEE1FFF1F92
:100A3000A217B307E407F50720F0A21BB30BE40BE2
:100A4000F50B661F771F881F991F1A9469F7609529
:100A50007095809590959B01AC01BD01CF010895E3
:100A6000A29FB001B39FC001A39F01D0B29F700DA0
:100A7000811D1124911D0895F3DFB7FF0895821B96
:080A8000930B0895F894FFCFD9
:100A88007265765F3100E1AC018080F4010183007A
:00000001FF
