:1000000019C033C032C031C030C02FC02EC02DC087
:1000100092C02BC02AC029C028C027C026C025C036
:1000200024C06BC122C021C020C01FC01EC01DC083
:100030001CC01BC011241FBECFEFCDBFDFE3DEBF4E
:100040001FE3A0E0BFE3EEECFEE002C005900D92DE
:10005000A031B107D9F72FE3A0E1BFE301C01D92A2
:10006000AD31B207E1F788D1AFC6CACFCF93C62F63
:10007000813D27E0920710F080ED97E082339105F3
:1000800010F482E390E09C0150E040E060E070E01A
:1000900081E090E05BD6F89420930D3F30930E3FC3
:1000A000CC2321F01092163F1092173F7894CF91F5
:1000B00008958091021081FDFCCFF8948DE984BFF2
:1000C00083E0809300107894089510920F3F90E899
:1000D000909306042FE332E44FE02150304040403B
:1000E000E1F700C0000090E020E8209305045FEBFA
:1000F00037E249E0515030404040E1F700C0000095
:10010000209306045FEB37E249E051503040404015
:10011000E1F700C000009F5F891738F75FE789EBC0
:100120009AE2515080409040E1F700C0000081E029
:1001300080930F3F08951F920F920FB60F921124D4
:100140002F933F934F935F936F937F938F939F93DF
:10015000AF93BF93EF93FF9380910B3F90910C3F30
:100160008093380A9093390A8091103F8F5F8431D1
:10017000B0F48093103F81E080930B0AFF91EF91E0
:10018000BF91AF919F918F917F916F915F914F91AF
:100190003F912F910F900FBE0F901F9018951092C6
:1001A000103F80911A3F90911B3F019680931A3F18
:1001B00090931B3F20910D3F30910E3F8091163F51
:1001C0009091173F820F931F8093163F9093173F94
:1001D0008091183F4091163F5091173F252F30E0F6
:1001E000A52F833009F46FC080F4813009F444C036
:1001F000823009F44BC0E22FEF77F0E0E453F2478E
:10020000A08127FF43C0A19541C0AA0FAA0B84304B
:10021000E9F1853081F780910D3F90910E3F4817AD
:10022000590708F055C08091083F8823B9F08091A4
:100230000A3F8093093F4091063F5091073FCA0112
:100240009695879540FD41C08093063F9093073F68
:100250008091063F80930A3F1092083F80911C3F97
:10026000A0910A3F8230C1F54091093FA41BBB0B0E
:100270009BD5A42FA70F0AC057FDA0952FEFA29FD3
:10028000C00111246FE770E04DD5A62F2A2F30E072
:10029000A7EEB3E07DD52FEF30E040E050E056D53B
:1002A00020930B3F30930C3F80910F3F882309F43C
:1002B00062CF8091163F9091173F97FF1AC080E858
:1002C0008093060458CFA095E1CF44EB9427BCCF90
:1002D00081E08093083FC2CF80911C3F8111D6CF2F
:1002E00080910D3F90910E3F833A910508F4BCCF69
:1002F000CDCF80E8809305043ECF1F920F920FB6BA
:100300000F9211242F933F938F939F938091113FCE
:10031000882371F01092113F81E080930B069F912A
:100320008F913F912F910F900FBE0F901F901895B6
:1003300080910606813021F0823081F081E019C081
:1003400020911006309111062093143F3093153FF1
:1003500092E0909306068093113FDECF80911006C5
:10036000909111068093123F9093133F81E0809308
:10037000193F80930606EFCFCF93DF93CDB7DEB75B
:100380002D97CDBFDEBF88ED84BF109261008091B4
:1003900062008160809362008091021081FDFCCF39
:1003A0002091001429838090011490900214809170
:1003B000031480931C3F309104143A83C401C29704
:1003C0008F39974020F014EF812E992493948981DE
:1003D000823008F0198280911C3F833010F0109217
:1003E0001C3F9A81923008F01A82789488E88093B2
:1003F000010480E88093060480911604886080934D
:10040000160484E0809312048093110410920F3F2D
:100410008091010A83618093010A87EE93E08093C3
:10042000260A9093270A84EF91E08093280A9093FC
:10043000290A80910A0A816080930A0A81E08093E8
:10044000000A94E5909302068093060680930A06BC
:10045000909100069360909300068093113F8093E3
:10046000080610921A3F10921B3F8091193F81118C
:1004700009C0F89480911A3F90911B3F789484367C
:10048000910598F3EFE7F8E321E0E150F0402040D8
:10049000E1F700C00000F8940091143F1091153F5F
:1004A0008091123F9091133F78948F3F910509F00E
:1004B00008F463C38115934008F41AC48A8192E05A
:1004C000D92E813011F485E05FC384E05DC3B801AB
:1004D00090E080E0B6E0660F771F881F991FBA95FD
:1004E000D1F761507E4F8F4F9F4F2FEF33E040E0A9
:1004F00050E02CD4213408F020E4E22FF0E0EE0F9D
:10050000FF1FE45BF147808191818C879D8760E0CC
:10051000ADDD45C381E080930F3F49C3F32CDE80FE
:1005200055C31E827AC341E04E8377C39E8180E02B
:10053000992309F47FC384E0913009F07BC381E003
:1005400079C382E077C383E075C32A82332433946E
:10055000712CA12CB12C83C38C859D859C012C19F9
:100560003D09C816D90628F09601EC85FD852E1B9D
:100570003F0B8C859D8564E170E0D4D368327105B2
:1005800010F468E270E062177307A8F1C8018419DB
:1005900095094016510618F0C201801B910B0A976D
:1005A00050F160E0C60162DDF981F13009F082C3EB
:1005B00010921A3F10921B3F8201E12C612CF8949B
:1005C00080911A3F90911B3F7894893E934008F4A4
:1005D0004FC080911C3F10920014809201149092A1
:1005E0000214809303148A818093041462DDCC8604
:1005F000DD86198209C0612C2D81213031F43981C9
:10060000CC84DD843323D9F21D822110A5C0F110E2
:1006100057C0E1E0EB1508F03CC0F89420911A3F78
:1006200030911B3F7894C401880F991F880D991D44
:100630008217930718F580911C3FF1E0F0930014A6
:100640008092011490920214809303142A812093C3
:1006500004142FDD10921A3F10921B3FE12C312C15
:10066000712CA12C8201612CB12C31E0398357CF40
:10067000CC86DD86198291E09D83C7CFF894809166
:100680001A3F90911B3F7894853C9940A0F6312CFD
:1006900046CF81E0312CB81211C0F89480911A3FF6
:1006A00090911B3F7894853C994088F310921A3FB3
:1006B00010921B3F312C712CA12C612CB12C2FCF0F
:1006C000332051F010921A3F10921B3F82011F827B
:1006D000312C712CA12C0BC1F1E0BF1214C0A11060
:1006E00012C0711012C0F89480911A3F90911B3F74
:1006F0007894AA24A394843F914008F0A12C1F82EF
:10070000312C8201F6C07720D1F3888599858C87BA
:100710009D87C29720F4E2E3F0E0EC87FD872C850B
:100720003D85213D374020F080ED97E08C879D8707
:1007300061E08C859D859ADC10921A3F10921B3FD8
:100740008C849D84F9821F82E12C712CA12C820162
:10075000F12CB2E0BB2EE3CEF1108DC0B1101DC064
:10076000F894E091163FF091173FEA87FB87789461
:1007700010921A3F10921B3FF8941092163F10925D
:10078000173F7894712CA12CF1E0FF8366246394C9
:10079000BB24B394FF24F394C2CE21E0B2122AC04A
:1007A000AA2009F4A6C0F89480911A3F90911B3FAB
:1007B0007894BA2CC29708F4B2CEF89480911A3F7C
:1007C00090911B3F8887998778948091200A909117
:1007D000210A843F914030F0288539852F5F3F4FB3
:1007E0002887398710921A3F10921B3F7A2CBA2C17
:1007F000FA2C95CEF89480911A3F90911B3F7894F3
:10080000C29708F48CCEF89480911A3F90911B3FC8
:1008100078942091200A3091210A243F314008F039
:100820000196880D991D96958795EC85FD85E80FB5
:10083000F91FF695E795EC87FD87F29720F422E300
:1008400030E02C873D878C859D85813D974020F049
:1008500020ED37E02C873D8761E08C859D8506DCA7
:10086000B39410921A3F10921B3F8C849D84820196
:1008700031E039838FCF311051CEF89480911A3FF7
:1008800090911B3F7894843F914008F448CE7720A4
:1008900091F180911C3F8F5F80931C3F80911C3FA2
:1008A000833010F010921C3F80911C3F99819093EF
:1008B0000014809201149092021480930314EA8130
:1008C000E0930414F6DB80911C3FFFDB8091080469
:1008D00086FD0AC083E991E10197F1F700C00000AD
:1008E0008091080486FFF2CF712CA12C8201612C2B
:1008F000B12CF12C14CEEE2009F4A5C0EB81FC81C3
:10090000EC3221E0F20708F088C08F0130E020E0EF
:10091000000F111F221F331F8B819C81EC85FD85E9
:100920008E179F0708F07EC06F01C81AD90A612C84
:100930005C019F819923E9F0F89440911A3F50910E
:100940001B3F7894F89420910D3F30910E3F78949E
:10095000429FC001439F900D529F900D1124EA8544
:10096000FB858E0F9F1FF8948093163F9093173F3F
:100970007894809108048074662009F4A6C18111DE
:1009800091C02C853D852017310708F081C02F5F6D
:100990003F4F2C873D8760E08C859D8567DBF89411
:1009A0004090143F5090153F8091123F9091133F1B
:1009B0007894AFEFB3E0A419B5099D01E9D12FEF09
:1009C00033E040E050E0C2D1A4E1BEE1F3D12FEF2B
:1009D00033E040E050E0BAD1245D3E4FA8EEB3E0F2
:1009E000D7D1960150E040E0B1D1283C3105410516
:1009F000510508F4B1C0283E93E03907410551057F
:100A000008F09FC0215031094109510908F4B1CFC4
:100A1000E6E0EA95F1F700C0F5CF0B811C81169551
:100A200007957ACFCB80DC802C853D85C21AD30A0E
:100A3000612CAB80BC80C114D10409F07ACFCC24E6
:100A4000C394D12C76CF8C859D858C32E1E09E07B6
:100A500090F48C0130E020E0000F111F221F331FA3
:100A60002C853D850217130758F46901C01AD10A75
:100A70006F2C59015ECF0C851D8516950795F0CF1B
:100A800068018C859D85C81AD90A6F2C5C01D3CF6B
:100A90008C859D850817190708F07DCF01978C87F5
:100AA0009D8779CFEC85FD85E017F10709F459C0E2
:100AB0006F01CA18DB08AE16BF0628F065012C8549
:100AC0003D85C21AD30AC114D10409F41AC1EE201B
:100AD00009F41CC12C853D852A153B0509F44BC042
:100AE0006901CA18DB08A216B30628F065018C85D7
:100AF0009D85C81AD90AE12C612CC114D10409F0D2
:100B00004ACFCC24C394D12C46CF8111E3CF8C851E
:100B10009D858A159B0510F40196C1CFEC85FD8556
:100B2000AE16BF0608F037CF3197EC87FD8733CF7D
:100B3000EC85FD85AE16BF06F0F43197EC87FD8796
:100B4000EEC087E893E10197F1F700C00000285E4E
:100B50003340410951094FCF28EC30E040E050E0EC
:100B600051CFAB82BC8210921A3F10921B3F1F8262
:100B7000E62C312CBACE612CF6CF2A81D22E822FD0
:100B8000213011F4D12C82E08093183F498141300B
:100B900009F09DCC60E0C40169DA8C869D86809165
:100BA000183F853009F0B6CC80911C3F8EDA1A864A
:100BB0001B861F821B821C82E12C312C1886198611
:100BC000712CA12C1D82612CB12CF12CF894409039
:100BD000143F5090153F8091123F9091133F7894AD
:100BE00020910804212C26FD0DC0E3E9F1E13197A5
:100BF000F1F700C000002090080426FA222420F813
:100C0000F1E02F268F3F910509F008F48ACC811579
:100C1000934008F488CC32E03E838E81D816E9F008
:100C2000222009F483CC882309F48BCC813009F489
:100C30008ACC85E08093183F80911C3FE981E09346
:100C40000014809201149092021480930314209255
:100C500004142FDA211079CC1A826110CDCCB201A4
:100C600090E080E0E6E0660F771F881F991FEA9505
:100C7000D1F761507E4F8F4F9F4F2FEF33E040E011
:100C800050E064D0213408F020E4E22FF0E0EE0FD1
:100C9000FF1FE45BF147C080D180F981F1115CCC8A
:100CA000E1105ACC2C853D852C153D0519F060E0EE
:100CB000C601DCD93D81313009F47ECC3983E32E85
:100CC0008201CC86DD86632EA0CCE1101ECF81117F
:100CD0001DC0EC85FD856F01C01AD10A0E171F07D4
:100CE00028F068012C853D85C21AD30A6F2C05CFE8
:100CF0004A81DD24D39483E0413009F445CF81E07B
:100D000043CFCC24C394D12CE110E4CE8C859D85B7
:100D10008A159B0508F00CCF01968C879D87E12CE6
:100D2000612C39CEAA1BBB1B51E107C0AA1FBB1FF8
:100D3000A617B70710F0A61BB70B881F991F5A9567
:100D4000A9F780959095BC01CD010895A1E21A2ED6
:100D5000AA1BBB1BFD010DC0AA1FBB1FEE1FFF1F5F
:100D6000A217B307E407F50720F0A21BB30BE40BAF
:100D7000F50B661F771F881F991F1A9469F76095F6
:100D80007095809590959B01AC01BD01CF010895B0
:100D9000A29FB001B39FC001A39F01D0B29F700D6D
:100DA000811D1124911D0895F3DFB7FF0895821B63
:100DB000930B0895EDDFA59F900DB49F900DA49F18
:0C0DC000800D911D11240895F894FFCFC0
:100DCC00808386898C909396999C9FA2A5A8ABAEA4
:100DDC00B1B3B6B9BCBFC1C4C7C9CCCED1D3D5D8B9
:100DEC00DADCDEE0E2E4E6E8EAEBEDEFF0F1F3F476
:100DFC00F5F6F8F9FAFAFBFCFDFDFEFEFEFFFFFF2F
:100E0C00FFFFFFFFFEFEFEFDFDFCFBFAFAF9F8F614
:100E1C00F5F4F3F1F0EFEDEBEAE8E6E4E2E0DEDC2A
:100E2C00DAD8D5D3D1CECCC9C7C4C1BFBCB9B6B33F
:100E3C00B1AEABA8A5A29F9C999693908C89868302
:100E4C00D0076007F60692063406DB0587053805E1
:100E5C00ED04A70464042504E903B1037C034A03ED
:100E6C001B03EF02C5029D027802540233021302E7
:100E7C00F501D901BF01A6018E01780163014F0173
:100E8C003C012B011A010A01FB00ED00E000D3002C
:100E9C00C700BC00B200A8009E0095008D00850024
:100EAC007E00770070006A0064005E0059005400F8
:100EBC004F004B00470043003F003B00380035001B
:020ECC003200F2
:100ECE007265765F3100E1AC018080F40183000130
:00000001FF
